:020000040800F2
:1000000000000220A9550008E11E0008E31E0008B8
:10001000E51E0008E71E0008E91E000800000000B9
:10002000000000000000000000000000EB1E0008BF
:10003000ED1E000800000000EF1E0008F11E000881
:10004000F9550008F9550008F9550008F955000858
:10005000F9550008F9550008F9550008F955000848
:10006000F9550008F9550008F9550008F955000838
:10007000F9550008F9550008F9550008F955000828
:10008000F9550008F9550008F9550008F955000818
:10009000F9550008F9550008F9550008F955000808
:1000A000F91E0008F9550008F9550008F95500082F
:1000B000F9550008F9550008F9550008F9550008E8
:1000C000F9550008F9550008F9550008F9550008D8
:1000D000F9550008F9550008F9550008F9550008C8
:1000E000F9550008F9550008F9550008F9550008B8
:1000F000F9550008F9550008F9550008F9550008A8
:10010000F9550008F9550008091F0008F9550008BD
:10011000F9550008F9550008F9550008F955000887
:10012000191F0008F9550008F9550008F95500088D
:10013000F95500080000000000000000F955000813
:10014000F9550008F9550008F9550008F955000857
:10015000F9550008F9550008F9550008F955000847
:10016000F9550008F9550008F9550008F955000837
:10017000F9550008F95500080000000000000000D3
:08018000F9550008F9550008CB
:1001900010B5054C237833B9044B13B10448AFF3C1
:1001A00000800123237010BDDC020020000000004D
:1001B0006880020808B5034B1BB103490348AFF33D
:1001C000008008BD00000000E002002068800208F6
:1001D00001F0FF01102A2BDB10F0070F08D010F8F8
:1001E000013B013A8B422DD010F0070F42B3F6D1FC
:1001F000F0B441EA012141EA014122F007047FF015
:1002000000070023F0E80256083C85EA010586EA6B
:10021000010685FA47F5A3FA87F586FA47F6A5FAA7
:1002200087F68EB9EED1F0BC01F0FF0102F00702B3
:1002300032B110F8013B013A83EA010313B1F8D15E
:100240000020704701387047002D06BF354603383F
:10025000073815F0010F07D1013015F4807F02BF78
:10026000013015F4C03F0130F0BC0138704700BFC9
:1002700010F8012B11F8013B012A28BF9A42F7D050
:10028000D01A7047034613F8012B002AFBD1181A25
:100290000138704781F0004102E000BF83F0004365
:1002A00030B54FEA41044FEA430594EA050F08BF11
:1002B00090EA020F1FBF54EA000C55EA020C7FEAD5
:1002C000645C7FEA655C00F0E2804FEA5454D4EB52
:1002D0005555B8BF6D420CDD2C4480EA020281EA1C
:1002E000030382EA000083EA010180EA020281EA54
:1002F0000303362D88BF30BD11F0004F4FEA0131A6
:100300004FF4801C4CEA113102D0404261EB4101B4
:1003100013F0004F4FEA03334CEA133302D052423A
:1003200063EB430394EA050F00F0A780A4F10104F6
:10033000D5F1200E0DDB02FA0EFC22FA05F2801830
:1003400041F1000103FA0EF2801843FA05F3594116
:100350000EE0A5F120050EF1200E012A03FA0EFC95
:1003600028BF4CF0020C43FA05F3C01851EBE371BF
:1003700001F0004507D54FF0000EDCF1000C7EEBDC
:1003800000006EEB0101B1F5801F1BD3B1F5001F1A
:100390000CD349085FEA30004FEA3C0C04F1010439
:1003A0004FEA445212F5800F80F09A80BCF1004F62
:1003B00008BF5FEA500C50F1000041EB045141EAE4
:1003C000050130BD5FEA4C0C404141EB0101013CAD
:1003D00028BFB1F5801FE9D291F0000F04BF01469C
:1003E0000020B1FA81F308BF2033A3F10B03B3F16E
:1003F00020020CDA0C3208DD02F1140CC2F10C02FE
:1004000001FA0CF021FA02F10CE002F11402D8BF5B
:10041000C2F1200C01FA02F120FA0CFCDCBF41EA27
:100420000C019040E41AA2BF01EB0451294330BDF6
:100430006FEA04041F3C1CDA0C340EDC04F11404D3
:10044000C4F1200220FA04F001FA02F340EA0300AA
:1004500021FA04F345EA030130BDC4F10C04C4F1F0
:10046000200220FA02F001FA04F340EA03002946D0
:1004700030BD21FA04F0294630BD94F0000F83F41A
:10048000801306BF81F480110134013D4EE77FEAFD
:10049000645C18BF7FEA655C29D094EA050F08BF49
:1004A00090EA020F05D054EA000C04BF194610462A
:1004B00030BD91EA030F1EBF0021002030BD5FEA6E
:1004C000545C05D14000494128BF41F0004130BD96
:1004D00014F580043CBF01F5801130BD01F00045EA
:1004E00045F0FE4141F470014FF0000030BD7FEA5D
:1004F000645C1ABF194610467FEA655C1CBF0B4658
:10050000024650EA013406BF52EA033591EA030F6E
:1005100041F4002130BD00BF90F0000F04BF002166
:10052000704730B54FF4806404F132044FF0000599
:100530004FF0000150E700BF90F0000F04BF002112
:10054000704730B54FF4806404F1320410F0004578
:1005500048BF40424FF000013EE700BF42004FEA73
:10056000E2014FEA31014FEA02701FBF12F07F43F0
:1005700093F07F4F81F06051704732F07F4208BFA7
:10058000704793F07F4F04BF41F40021704730B5AE
:100590004FF4607401F0004521F000411CE700BFFA
:1005A00050EA010208BF704730B54FF000050AE07D
:1005B00050EA010208BF704730B511F0004502D57E
:1005C000404261EB41014FF4806404F132045FEA80
:1005D000915C3FF4D8AE4FF003025FEADC0C18BF29
:1005E00003325FEADC0C18BF033202EBDC02C2F11B
:1005F000200300FA03FC20FA02F001FA03FE40EAAD
:100600000E0021FA02F11444BDE600BF70B54FF0B0
:10061000FF0C4CF4E06C1CEA11541DBF1CEA13558E
:1006200094EA0C0F95EA0C0F00F0DEF82C4481EAF6
:10063000030621EA4C5123EA4C5350EA013518BF16
:1006400052EA033541F4801143F4801338D0A0FB03
:1006500002CE4FF00005E1FB02E506F00042E0FBB0
:1006600003E54FF00006E1FB03569CF0000F18BFB6
:100670004EF0010EA4F1FF04B6F5007F64F540745E
:1006800004D25FEA4E0E6D4146EB060642EAC621F1
:1006900041EA55514FEAC52040EA5E504FEACE2E5E
:1006A000B4F1FD0C88BFBCF5E06F1ED8BEF1004F61
:1006B00008BF5FEA500E50F1000041EB045170BDDD
:1006C00006F0004646EA010140EA020081EA030121
:1006D000B4EB5C04C2BFD4EB0C0541EA045170BD1D
:1006E00041F480114FF0000E013C00F3AB8014F197
:1006F000360FDEBF002001F0004170BDC4F10004E0
:10070000203C35DA0C341BDC04F11404C4F1200560
:1007100000FA05F320FA04F001FA05F240EA0200BB
:1007200001F0004221F0004110EBD37021FA04F6F1
:1007300042EB06015EEA430E08BF20EAD37070BDAB
:10074000C4F10C04C4F1200500FA04F320FA05F00A
:1007500001FA04F240EA020001F0004110EBD3700C
:1007600041F100015EEA430E08BF20EAD37070BD7C
:10077000C4F1200500FA05F24EEA020E20FA04F355
:1007800001FA05F243EA020321FA04F001F0004104
:1007900021FA04F220EA020000EBD3705EEA430E75
:1007A00008BF20EAD37070BD94F0000F0FD101F0A4
:1007B0000046400041EB010111F4801F08BF013CDD
:1007C000F7D041EA060195F0000F18BF704703F01B
:1007D0000046520043EB030313F4801F08BF013DA2
:1007E000F7D043EA0603704794EA0C0F0CEA13555E
:1007F00018BF95EA0C0F0CD050EA410618BF52EA18
:100800004306D1D181EA030101F000414FF000001D
:1008100070BD50EA410606BF1046194652EA43062B
:1008200019D094EA0C0F02D150EA013613D195EA9F
:100830000C0F05D152EA03361CBF104619460AD1E7
:1008400081EA030101F0004141F0FE4141F47001F1
:100850004FF0000070BD41F0FE4141F4780170BDE1
:1008600070B54FF0FF0C4CF4E06C1CEA11541DBF46
:100870001CEA135594EA0C0F95EA0C0F00F0A7F848
:10088000A4EB050481EA030E52EA03354FEA013175
:1008900000F088804FEA03334FF0805545EA131388
:1008A00043EA12634FEA022245EA111545EA106550
:1008B0004FEA00260EF000419D4208BF964244F1E7
:1008C000FD0404F5407402D25B084FEA3202B61A06
:1008D00065EB03055B084FEA32024FF480104FF4DA
:1008E000002CB6EB020E75EB030E22BFB61A75464E
:1008F00040EA0C005B084FEA3202B6EB020E75EBE1
:10090000030E22BFB61A754640EA5C005B084FEA48
:100910003202B6EB020E75EB030E22BFB61A754615
:1009200040EA9C005B084FEA3202B6EB020E75EB20
:10093000030E22BFB61A754640EADC0055EA060EE1
:1009400018D04FEA051545EA16754FEA06164FEA24
:10095000C30343EA52734FEAC2025FEA1C1CC0D1D0
:1009600011F4801F0BD141EA00014FF000004FF05D
:10097000004CB6E711F4801F04BF01430020B4F11E
:10098000FD0C88BFBCF5E06F3FF6AFAEB5EB030CD6
:1009900004BFB6EB020C5FEA500C50F1000041EBD3
:1009A000045170BD0EF0004E4EEA113114EB5C04A0
:1009B000C2BFD4EB0C0541EA045170BD41F4801173
:1009C0004FF0000E013C90E645EA060E8DE60CEA7B
:1009D000135594EA0C0F08BF95EA0C0F3FF43BAF98
:1009E00094EA0C0F0AD150EA01347FF434AF95EA4F
:1009F0000C0F7FF425AF104619462CE795EA0C0F33
:100A000006D152EA03353FF4FDAE1046194622E7FF
:100A100050EA410618BF52EA43067FF4C5AE50EAD9
:100A200041047FF40DAF52EA43057FF4EBAE12E7C9
:100A30004FF0FF3C06E000BF4FF0010C02E000BFAA
:100A40004FF0010C4DF804CD4FEA410C7FEA6C5C8D
:100A50004FEA430C18BF7FEA6C5C1BD001B050EA30
:100A6000410C0CBF52EA430C91EA030F02BF90EA1B
:100A7000020F0020704710F1000F91EA030F58BFDA
:100A8000994208BF90422CBFD8176FEAE37040F03C
:100A9000010070474FEA410C7FEA6C5C02D150EADA
:100AA000013C07D14FEA430C7FEA6C5CD6D152EA95
:100AB000033CD3D05DF8040B704700BF844610465A
:100AC00062468C461946634600E000BF01B5FFF759
:100AD000B7FF002848BF10F1000F01BD4DF808ED29
:100AE000FFF7F4FF0CBF012000205DF808FB00BFFA
:100AF0004DF808EDFFF7EAFF34BF012000205DF854
:100B000008FB00BF4DF808EDFFF7E0FF94BF0120A0
:100B100000205DF808FB00BF4DF808EDFFF7CEFFA1
:100B200094BF012000205DF808FB00BF4DF808EDE0
:100B3000FFF7C4FF34BF012000205DF808FB00BFB1
:100B40004FEA410C7FEA6C5C02D150EA013C0AD1C9
:100B50004FEA430C7FEA6C5C02D152EA033C02D1BB
:100B60004FF0000070474FF0010070474FEA41021C
:100B700012F5001215D211D56FF47873B3EB6252EF
:100B800012D94FEAC12343F0004343EA505311F016
:100B9000004F23FA02F018BF404270474FF00000A8
:100BA000704750EA013005D111F0004008BF6FF0E6
:100BB000004070474FF00000704700BF4A0011D25C
:100BC00012F5001211D20DD56FF47873B3EB6252A7
:100BD0000ED44FEAC12343F0004343EA505323FAB3
:100BE00002F070474FF00000704750EA013002D128
:100BF0004FF0FF3070474FF0000070474FEA41025E
:100C0000B2F1E04324BFB3F5001CDCF1FE5C0DD96A
:100C100001F0004C4FEAC0024CEA5070B2F1004FB4
:100C200040EB830008BF20F00100704711F0804FB7
:100C300021D113F13872BCBF01F00040704741F47C
:100C400080114FEA5252C2F11802C2F1200C10FA80
:100C50000CF320FA02F018BF40F001004FEAC12364
:100C60004FEAD32303FA0CFC40EA0C0023FA02F308
:100C70004FEA4303CCE77FEA625307D150EA0133DE
:100C80001EBF4FF0FE4040F44000704701F00040AE
:100C900040F0FE4040F40000704700BF53B94AB92D
:100CA000002908BF00281CBF4FF0FF314FF0FF3074
:100CB00001F014B9ADF1080C6DE904CE00F03CF878
:100CC000DDF804E0DDE9022304B0704738B5002206
:100CD000002304460D46FFF70BFF28B9204629469E
:100CE000BDE8384000F00AB8204605F1004100F0A8
:100CF00005F8404261EB410138BD00BFD0B50C4B57
:100D0000002206460F46FFF781FCFFF757FF044617
:100D1000FFF702FC074B0022FFF778FC02460B4668
:100D200030463946FFF7BAFAFFF748FF2146D0BDF3
:100D30000000F03D0000F0412DE9F047089D044619
:100D40008E46002B4DD18A42944669D9B2FA82F27E
:100D500052B101FA02F3C2F1200120FA01F10CFABA
:100D600002FC41EA030E94404FEA1C48210CBEFBF2
:100D7000F8F61FFA8CF708FB16E341EA034306FB7B
:100D800007F199420AD91CEB030306F1FF3080F00A
:100D90001F81994240F21C81023E63445B1AA4B257
:100DA000B3FBF8F008FB103344EA034400FB07F7F9
:100DB000A7420AD91CEB040400F1FF3380F00A813A
:100DC000A74240F207816444023840EA0640E41B2F
:100DD00000261DB1D4400023C5E900433146BDE8DB
:100DE000F0878B4209D9002D00F0EF800026C5E97D
:100DF000000130463146BDE8F087B3FA83F6002E95
:100E00004AD18B4202D3824200F2F980841A61EB0C
:100E1000030301209E46002DE0D0C5E9004EDDE72A
:100E200002B9FFDEB2FA82F2002A40F09280A1EB12
:100E30000C014FEA1C471FFA8CFE0126200CB1FB67
:100E4000F7F307FB131140EA01410EFB03F0884260
:100E500008D91CEB010103F1FF3802D2884200F2ED
:100E6000CB804346091AA4B2B1FBF7F007FB10117F
:100E700044EA01440EFB00FEA64508D91CEB04041D
:100E800000F1FF3102D2A64500F2BB800846A4EB78
:100E90000E0440EA03409CE7C6F12007B34022FA63
:100EA00007FC4CEA030C20FA07F401FA06F31C4392
:100EB000F9404FEA1C4900FA06F3B1FBF9F8200C9F
:100EC0001FFA8CFE09FB181140EA014108FB0EF0E5
:100ED000884202FA06F20BD91CEB010108F1FF3A35
:100EE00080F08880884240F28580A8F10208614441
:100EF000091AA4B2B1FBF9F009FB101144EA01414F
:100F000000FB0EFE8E4508D91CEB010100F1FF34F9
:100F10006CD28E456AD90238614440EA0840A0FB91
:100F20000294A1EB0E01A142C846A64656D353D067
:100F30005DB1B3EB080261EB0E0101FA07F722FA8B
:100F400006F3F1401F43C5E9007100263146BDE8B4
:100F5000F087C2F12003D8400CFA02FC21FA03F317
:100F6000914001434FEA1C471FFA8CFEB3FBF7F098
:100F700007FB10360B0C43EA064300FB0EF69E42BD
:100F800004FA02F408D91CEB030300F1FF382FD256
:100F90009E422DD9023863449B1B89B2B3FBF7F6FE
:100FA00007FB163341EA034106FB0EF38B4208D9D7
:100FB0001CEB010106F1FF3816D28B4214D9023E18
:100FC0006144C91A46EA004638E72E46284605E736
:100FD0000646E3E61846F8E64B45A9D2B9EB020807
:100FE00064EB0C0E0138A3E74646EAE7204694E797
:100FF0004046D1E7D0467BE7023B614432E73046CA
:1010000009E76444023842E703685A004CBF43F0E2
:10101000004323F000431844704700BF2DE9F84314
:1010200029B34F1E044615463E464FF0000808EB14
:10103000060101EBD171491004EBC1094846FFF7E5
:10104000E3FF0346C80008308F42204409D0AB427A
:1010500009D8FFF7D9FF0138A8420AD201F10108E7
:10106000E5E7AB4205D9884501D04E1EDFE74FF0DA
:1010700000094846BDE8F883012807D0022807D0B8
:10108000044B00280CBF18460020704702487047E8
:1010900002487047511700085517000859170008F3
:1010A00030B5234B83B004468D1E3BB301A92846BF
:1010B000AFF30080E8B101992A46FFF7AFFF014680
:1010C000B8B1FFF7A1FF4B68A064012B2CD0002B17
:1010D00001F1040024DBFFF797FF0023C4E91303A9
:1010E0000368002B11DBFFF78FFF2061002003B0A6
:1010F00030BD00230920236103B030BD0D4B0E49E4
:10110000C91AC91018460191D6E7C3F30360FFF767
:10111000B3FF0028206114BF0020092003B030BDB8
:101120000123C4E91303DBE7002323610520DEE785
:10113000000000006CCA0208E4CB02080368DA076A
:1011400010B5044606D49B0700F1480009D500F00D
:101150005BFC2368590709D51A070ED5DB0613D5A2
:1011600010BD00F049FC23685907F5D404F1D00004
:1011700000F052FC23681A07F0D404F5A87000F0C0
:1011800053FC2368DB06EBD404F5E870BDE810409F
:1011900000F08EBC092070470346006800B1184477
:1011A000704700BF704700BF70B504460E46316CF3
:1011B0002046FFF775FF054688B9326C62612369E6
:1011C00032462146012098470828F0D0072806D14A
:1011D0002846316CFFF7E6FF301D00F001FC1EF0E1
:1011E00097F800BF2DE9F0470D1DD0F80C80D0F81E
:1011F0001890074614460FCDADF5727D0DF10C0C1D
:10120000ACE80F000FCDACE80F000FCDACE80F003D
:1012100095E80F0002AE4FF0000E8CE80F00C6F804
:1012200000E020E0336C7B614FF4F07231467AA825
:101230001EF0D8FE3B697AAA394650469847889BEB
:1012400073642146CDE9006905463B463A460120D4
:10125000C0470446E0B94FF4F0727AA930461EF058
:10126000C1FE082D1AD1316C3846FFF719FF093439
:101270005FFA84FA05460028D4D0B36B73643A460B
:10128000CDE900693B464AF010010120C04700B19A
:10129000092528460DF5727DBDE8F087072DF7D1A9
:1012A0002046316CFFF77EFF03A800F099FB00BFDA
:1012B000406C7047F0B5CB6B0B6401F1040C0E462B
:1012C0000546BCE80F00F9B001AC0FC4BCE80F0044
:1012D0000FC4BCE80F000FC49CE80F004FF0FF37AD
:1012E00084E80F00009706E02B696A462946984774
:1012F0000828044608D110992846FFF7D1FE002897
:10130000F2D0092079B0F0BD6846FFF717FF062C30
:10131000F7D131462846FFF747FF00BFC160D96BC0
:1013200082611964002219465CE700BF70B5C66887
:1013300043690B64AEB903690A4604460D4601468B
:1013400002209847072805D008280FD129462046B3
:10135000FFF72AFF3046296CFFF724FF281D00F015
:101360003FFB0122FFF73EFF1DF0D2FF1DF0D0FF33
:10137000C2681AB1CA6B0A64002233E79AE700BF59
:10138000704700BF836801460BB1012018477047C2
:10139000012912D009D873B90F2A0CD800EB8202A8
:1013A00018465368009A136070470339012994BFA7
:1013B000012002207047022070470846704700BF96
:1013C00000B585B00A46002303A900911946FFF72E
:1013D000DFFF039805B05DF804FB00BF012912D0C0
:1013E00009D873B90F2A0CD800EB8200009A126852
:1013F0004260184670470339012994BF012002203A
:101400007047022070470846704700BF10B584B08F
:10141000002303AC039200940A461946FFF7DEFF4F
:1014200004B010BD70B5D36B136402F1040C054613
:101430000C46BCE80F00ADF50E7D0DF15C0EAEE87C
:101440000F00BCE80F00AEE80F00BCE80F00AEE8EC
:101450000F009CE80F004FF0FF368EE80F00169645
:1014600010E0FFF7D3FF214616A8A847034616AAA7
:101470006946082083B9049B9847052806460CD086
:10148000092809D026996846FFF70AFE03466A46EE
:101490000C2116A8002BE4D0092616A8FFF74EFE53
:1014A00030460DF50E7D70BD2DE9F04FCC6C89B046
:1014B0001E4654F8043B06940D46174600F00308F8
:1014C000002E79D01A0C1B0405938DF81D200223E1
:1014D000D2B204EB82048DF81C302B6DB8F1020FF0
:1014E00008BFAC6B13F001030CD005A9384600F01F
:1014F00079FB18B9082009B0BDE8F08F092009B0C0
:10150000BDE8F08FD4F800A0BAF1000FEDD0019340
:1015100000F008030293022E4AD0B4F800A0B4F8F9
:1015200002900434AB6C29F0010B0F2138469B4428
:10153000FFF746FF834539D82AF001039B448345D2
:1015400094BF002001204FEA490303F002030AF090
:10155000010A43EA0A03012B49D0022B32D0002BA7
:10156000CCD1B8F1000F02D0002840F0CD80043477
:10157000D4F800A0BAF1000FCDD105A9384600F08B
:1015800031FB0028BAD1019B002BB3D00F21384684
:10159000FFF716FF0E2102463846FFF737FF3846A1
:1015A0006A4A0F21FFF732FF0720A8E70020CAE7A9
:1015B000D4F804900834B5E71B0205930323ADF873
:1015C0001C308AE7236823F0004BB8F1000F45D1A7
:1015D00028B1029A002A5CD0BBF1000F74D0002B16
:1015E00000DA04340BF1010B04EB8B04C0E7B8F113
:1015F000000F19D1B0B163682268991C4FEAD2720A
:101600003FF47CAF05F158010133049100F0908064
:10161000201DFFF7C1FD04AB0146284604F08CF8FD
:1016200000285BD10834A3E70D213846D5F8209077
:10163000FFF7C6FE8145F5D1AB6A9C42F2D1204648
:10164000FFF7E2FC0F2102463846FFF7DFFE38467F
:101650002A460021FFF7DAFE072050E70D21384621
:10166000D5F82090FFF7ACFE814501D02368B6E79E
:10167000AB6A9C42FAD104230022C5E90B23E3188C
:10168000C5F828B06B632368002B59DB0123019355
:10169000A8E705F15803CDF80C8004F1040AB04620
:1016A00091461E460EE050460496FFF775FD002257
:1016B000014604AB284609F101090AF1040A04F0C5
:1016C0003BF8E0B9D945EED10D213846FFF778FE59
:1016D000049BAC62C5E90803062010E781460D2192
:1016E0003846FFF76DFEB9F1020F286225D12B466F
:1016F000049A43F82C2F6B62AC620620FFE6464644
:101700002368DDF80C806AE72046FFF77DFC04348F
:101710000246AC632846144604F06CF800283FF4F7
:10172000EDAE384622460F21FFF770FE0720E6E6B1
:101730000D213846FFF744FE2862049B6B62DBE70D
:101740000BF1010004EB80007AE700BF19E101080A
:101750000023A9E60123A7E60223A5E62DE9F0432D
:101760000646C3B015461C46042900F2BF80DFE8D8
:1017700001F09E57BD2D0300002C40F0B780102AC9
:1017800000F2B4800368D80600F1F98020AF384633
:1017900000F098F9B46B394600234FF0010C0CFAB5
:1017A00003F22A42204603F1010303D050F8042B30
:1017B0000A600446042B01F10401F0D13846B463F9
:1017C00000F076F9002043B0BDE8F083032C40F030
:1017D0008D8094B204EB1243102B4FEA124500F2B5
:1017E000858003681F0700F1D28020AF384600F0E3
:1017F0003DF9B26B07EBC50154B10B46D01A01EBB2
:10180000C401E4001D5843F8045B8B42FAD1224422
:101810003846B26300F008F9002043B0BDE8F08319
:10182000012C4FEA124895B25CD0052C5ED108EB32
:101830000509B9F1200F59D8B8F10F0F79D9A94688
:10184000002D40F08A80B36B6DB320AF4FF00009DC
:1018500007EBC807043F03EBC50553F8041B47F823
:10186000041FAB42F9D1B9F1000F0FD06F464146CA
:10187000102938BF102107EBC101843903EBC905DA
:1018800053F8040B41F8040FAB42F9D1012C00F0DE
:101890008680B8F10F0FB56347D9B9F1000F02D0B8
:1018A000684600F0B9F8002043B0BDE8F083ECB919
:1018B000806B23461FFA82FC0124371D04FA03F2D1
:1018C00012EA0C0F014604D051F8042B47F82320EC
:1018D00008460133102BF1D115F40055E3D1B06364
:1018E000284604E008EB0503102B03D9022043B07F
:1018F000BDE8F083B8F10F0FF8D83368DA0706D5E2
:10190000304623F0030340F8483B00F079F820AF5D
:10191000384600F075F8B36B002D97D11D4604359D
:10192000B563384600F068F8BDE720A800F06CF811
:10193000B3E7B9F1100F40D9A9F110093368D907FD
:1019400008D523F00103304643F0020340F8483B3A
:1019500000F05EF8B9F1000F32D033685A0720D496
:10196000B8F10F0F25D96F463846C8F1100500F0C1
:1019700057F8002DB36B7FF77AAF20AF68E723F0FD
:101980001003336006F5E87000F09CF8FEE623F0E3
:101990000803036000F5A87000F068F825E720AFA1
:1019A000BDE7304623F0040340F8D03B00F038F8A0
:1019B000D6E720A800F02CF8D5E74FF00009BDE7E6
:1019C000B8F10F0F3FF63FAF20AF384600F020F8D8
:1019D000B36B002D7FF43AAF384600F015F862E79C
:1019E00000F1340191E838009C46A6464CF8045DAD
:1019F00090E8FF0FE54600BD90EC210B704700BF5B
:101A000080EC210B704700BF90EC200B704700BFAB
:101A100080EC200B704700BFD0EC200B704700BF5C
:101A2000C0EC200B704700BFF0EC0201F0EC02119B
:101A3000F0EC0221F0EC0231F0EC0241F0EC02514A
:101A4000F0EC0261F0EC0271F0EC0281F0EC02913A
:101A5000F0EC02A1F0EC02B1F0EC02C1F0EC02D12A
:101A6000F0EC02E1F0EC02F1704700BFE0EC0201A3
:101A7000E0EC0211E0EC0221E0EC0231E0EC02418A
:101A8000E0EC0251E0EC0261E0EC0271E0EC02817A
:101A9000E0EC0291E0EC02A1E0EC02B1E0EC02C16A
:101AA000E0EC02D1E0EC02E1E0EC02F1704700BFB3
:101AB000B0FC0181B0FC0191B0FC01A1B0FC01B10E
:101AC000704700BFA0FC0181A0FC0191A0FC01A116
:101AD000A0FC01B1704700BFEC4600B52DE90050F5
:101AE0002DE9FF1F4FF000032DE90C0001A9FFF7BE
:101AF000E1FBDDF840E012B0704700BFEC4600B5F6
:101B00002DE900502DE9FF1F4FF000032DE90C00D7
:101B100001A9FFF70BFCDDF840E012B0704700BFF1
:101B2000EC4600B52DE900502DE9FF1F4FF00003F2
:101B30002DE90C0001A9FFF71BFCDDF840E012B015
:101B4000704700BFEC4600B52DE900502DE9FF1F9E
:101B50004FF000032DE90C0001ABFFF7DFFBDDF8D0
:101B600040E012B0704700BFEC4600B52DE90050D0
:101B70002DE9FF1F4FF000032DE90C0001AAFFF72C
:101B800051FCDDF840E012B0704700BF027A034616
:101B90007AB9427AA2B14168013A10B44272086837
:101BA00003220C1D1A7202025C60000E10BC1A6047
:101BB00070470068013A1A7202021A60000E7047FC
:101BC000B020704700B585B0002303AA00921946E3
:101BD0000C22FFF7DDFB039805B05DF804FB00BFA6
:101BE000F0E700BF2DE9F043054685B00E464FF003
:101BF00000083046FFF7CAFFB028044600F0BA805C
:101C0000070620D500F0F003802B4DD0902B36D066
:101C1000A02B60D0B02B74D0C02B00F08B8000F0D4
:101C2000F803D02B0BD100F007020132052342F458
:101C3000002201212846FFF791FD0028D9D0092074
:101C400005B0BDE8F0838300DBB21F1D0DF10C0968
:101C500000231946CDF800900D222846FFF798FB87
:101C6000039BCDF8009060064CBFDF1BFF180023DC
:101C70000D22194628460397FFF7B0FBB9E700F09D
:101C80000D030D2BDBD003AF002300F00F0219462C
:101C900000972846FFF77CFB002300970D2219468A
:101CA0002846FFF79BFBA4E73046FFF76FFF2402AF
:101CB0002043B0F5004FC2D004010023A2B2194660
:101CC0002846FFF74BFD0028B9D114F4004F18BF88
:101CD0004FF001088DE7C24302F007034FF47F6223
:101CE0001A41010702F47F624FF0000348BF42F43B
:101CF000804219462846FFF731FD00283FF479AFAE
:101D00009DE7B1283BD0B22800F09380B32841D0A2
:101D100000F0FC03B42B92D000F007020132012343
:101D200042F4002219462846FFF718FD00283FF428
:101D300060AF84E7C6284AD0C72854D000F0F80323
:101D4000C02B63D0C82868D0C9287FF478AF30464C
:101D5000FFF71CFF020300F00F0002F470220130B5
:101D60000243012105232846FFF7F8FC00283FF431
:101D700040AF64E7B8F1000F18D0002060E73046AC
:101D8000FFF704FF024600283FF459AF10F0F003BC
:101D9000C8D054E73046FFF7F9FE020300F00F0306
:101DA000013302F470221A430123BBE703AC43461C
:101DB0000E22414600942846FFF7EAFA0094434673
:101DC0000F2241462846FFF709FB404638E73046D8
:101DD000FFF7DCFE020300F00F03013302F4702270
:101DE0001A4303239EE73046FFF7D0FE0246002841
:101DF0003FF425AF10F0F0037FF421AF0421284613
:101E0000FFF7ACFC00283FF4F4AE18E700F00F0237
:101E10000132032342F4202284E73046FFF7B6FE66
:101E200000F0F00200F00F031032013343EA0232F7
:101E300097E700230DF10C090D221946CDF800900B
:101E40002846FFF7A5FA3046FFF7A0FE02064FF03E
:101E500002040CD5039B00F07F00A04018440390BF
:101E60003046FFF793FE030604F10704F2D4039B08
:101E7000CDF8009000F07F02A24003F501731A44F0
:101E80000023039219460D222846FFF7A7FAB0E671
:101E900010B5C26C536884B04FF0030C08321C02BA
:101EA00008461B0E01A9019402928DF80CC08DF812
:101EB0000D30FFF797FE04B010BD00BF08B5FFF767
:101EC0008FFE806C08BD00BF08B5FFF789FEC06CAF
:101ED000C379023300EB830008BD00BF704700BF29
:101EE000FEE7FEE7FEE7FEE7FEE770477047704754
:101EF00008B501F055FA08BD08B5024801F09EFB8F
:101F000008BD00BF0404002008B5024801F096FB9C
:101F100008BD00BF2405002008B5024801F0A6F85E
:101F200008BD00BF4C03002082B0002100910B4B84
:101F30005A6C42F480425A645A6C02F48042009215
:101F4000009A01911A6C42F080521A641B6C03F0E3
:101F500080530193019B02B0704700BF00380240DC
:101F600070B588B0002303930493059306930793F9
:101F7000026803F1804303F590339A4201D008B020
:101F800070BD04460025009503F58C335A6C42F46D
:101F900080725A645A6C02F480720092009A019521
:101FA0001A6B42F004021A631A6B02F004020192E7
:101FB000019A02951A6B42F001021A631B6B03F03F
:101FC00001030293029B012303930326049603A9B2
:101FD000144800F079FE0F2303930496059503A996
:101FE000114800F071FE1148114B03604560856097
:101FF000C5604FF4806303614FF4006343614FF4A5
:10200000005383614FF48073C3610562456200F041
:10201000C7FF18B9054BA3639C63B0E702F034FE19
:10202000F8E700BF00080240000002404C03002017
:102030001064024000B589B0002303930493059314
:10204000069307930268154B9A4202D009B05DF8D7
:1020500004FB0021019103F5FE331A6C42F40042A7
:102060001A641A6C02F400420192019A02911A6BEE
:1020700042F004021A631B6B03F004030293029BF9
:102080004FF4E053039302230493032306930623A0
:10209000079303A9024800F017FED7E7003C004071
:1020A0000008024000B585B00368284A93420BD06F
:1020B000B3F1804F1CD0264A934226D0254A934242
:1020C00030D005B05DF804FB00210091224B5A6C22
:1020D00042F001025A645B6C03F001030093009B21
:1020E0000A46182001F0C2F8182001F0F7F8E8E7D6
:1020F00000230193184B1A6C42F001021A641B6C06
:1021000003F001030193019BDBE700230293124BD1
:102110001A6C42F002021A641B6C03F00203029371
:10212000029BCEE7002103910B4B1A6C42F0080290
:102130001A641B6C03F008030393039B0A463220C6
:1021400001F094F8322001F0C9F8BAE7000001402C
:1021500000040040000C00400038024000B589B087
:102160000023039304930593069307930268134B8C
:102170009A4202D009B05DF804FB0021019103F5F9
:102180000C331A6C42F004021A641A6C02F0040256
:102190000192019A02911A6B42F002021A631B6BC0
:1021A00003F002030293029BC023039302230493D0
:1021B000079303A9024800F087FDDBE70008004011
:1021C0000004024000B589B00023039304930593F3
:1021D00006930793026803F1804303F582339A4222
:1021E00002D009B05DF804FB0021019103F59A3398
:1021F0005A6C42F002025A645A6C02F002020192D6
:10220000019A02911A6B42F004021A631B6B03F0ED
:1022100004030293029BC02303930223049303232A
:10222000079303A9014800F04FFDDAE700080240D8
:1022300070B588B000230393049305930693079326
:102240000368B3F1804F04D0234A93422ED008B0E4
:1022500070BD0024009403F50E331A6B42F00102A6
:102260001A631A6B02F001020092009A01941A6B31
:1022700042F002021A631B6B03F002030193019BFD
:1022800020230393022604960125079503A91348EA
:1022900000F01AFD4FF4006303930496059406942E
:1022A000079503A90E4800F00FFDD0E70023029325
:1022B0000C4B1A6B42F002021A631B6B03F0020311
:1022C0000293029B3023039302230493079303A9F1
:1022D000034800F0F9FCBAE70004004000000240A7
:1022E000000402400038024000B589B00023039387
:1022F0000493059306930793026803F1804303F563
:1023000088339A4202D009B05DF804FB00210191A4
:1023100003F594335A6C42F010025A645A6C02F07E
:1023200010020192019A02911A6B42F001021A63A3
:102330001B6B03F001030293029B4FF4C0630393F2
:1023400002230493032306930723079303A9024858
:1023500000F0BAFCD7E700BF000002404A4B5A68C1
:1023600022F440325A605A6841680A435A6002684F
:10237000536823F48073536002685368016943EA29
:10238000012353600268536823F04073536002686E
:10239000536881680B4353600268936823F40063B9
:1023A000936002689368C1680B439360826A374BFD
:1023B0009A4257D00268936823F070639360026872
:1023C0009368816A0B4393600268936823F04053DB
:1023D000936002689368C16A0B43936002689368D4
:1023E00023F00203936002689368017E43EA41038D
:1023F000936090F82030002B3FD00268536843F47C
:10240000006353600268536823F4604353600168BB
:102410004B68426A013A43EA42334B600268D36A2E
:1024200023F47003D3620168CB6AC269013A43EABC
:102430000253CB620268936823F4007393600268CE
:10244000936890F8301043EA4123936002689368E0
:1024500023F48063936002689368416943EA8123AF
:10246000936070470268936823F07063936002681A
:10247000936823F040539360B0E70268536823F4F5
:1024800000635360CAE700BF002301400100000F52
:1024900038B310B50446036C43B1236C13F0100F2E
:1024A0000BD00120002384F83C3010BDFFF758FD0D
:1024B0000023636484F83C30EFE7236C23F48853F3
:1024C00023F0020343F0020323642046FFF746FF94
:1024D00000206064236C23F0030343F001032364B2
:1024E000E0E701207047000030B482B00023019380
:1024F00090F83C30012B00F0BB80012380F83C3089
:102500000B68092B41D90468E2689BB203EB4303D3
:102510001E3B4FF0070C0CFA03F322EA0303E360BF
:102520000468E2680B8803EB43031E3B8D6805FAE1
:1025300003F31343E3604B68062B3DD80468626BDA
:1025400003EB8303053B4FF01F0C0CFA03F322EA65
:10255000030363630468626B4B6803EB8303053B0F
:10256000B1F800C00CFA03F3134363630268414BF4
:102570009A4251D002683F4B9A4256D0002380F8CD
:102580003C30184602B030BC7047046822699BB2E8
:1025900003EB43034FF0070C0CFA03F322EA0303A7
:1025A0002361046822690B8803EB43038D6805FAF5
:1025B00003F313432361BEE70C2B16D805682A6B7F
:1025C00003EB8303233B1F2404FA03F322EA0303F0
:1025D0002B6305682A6B4B6803EB8303233B0C8852
:1025E00004FA03F313432B63C0E70568EA6A03EBBD
:1025F0008303413B1F2404FA03F322EA0303EB6243
:102600000568EA6A4B6803EB8303413B0C8804FAD4
:1026100003F31343EB62A9E70B68122BAAD1164A06
:10262000536843F480035360A4E70B68103B012B0D
:10263000A4D8114A536843F4000353600B68102B6D
:102640009CD10E4B1B6802F1467202F52E3202F24B
:102650008332A2FB03239B0C03EB83035B000193F8
:1026600002E0019B013B0193019B002BF9D185E71F
:10267000022087E700200140002301400C000020D9
:10268000002800F0E08170B582B00446036813F0C2
:10269000010F3BD09F4B9B6803F00C03042B2CD005
:1026A0009C4B9B6803F00C03082B21D06368B3F5A7
:1026B000803F4FD0B3F5A02F52D0964B1A6822F42A
:1026C00080321A601A6822F480221A606368002B34
:1026D00050D000F071FE05468E4B1B6813F4003F8E
:1026E00014D100F069FE401B6428F5D90320B1E144
:1026F000884B5B6813F4800FD8D0864B1B6813F4AB
:10270000003F03D06368002B00F09F81236813F023
:10271000020F54D07F4B9B6813F00C0F3ED07D4BC3
:102720009B6803F00C03082B33D0E368002B68D0C0
:10273000794B01221A6000F03FFE0546754B1B687D
:1027400013F0020F54D100F037FE401B0228F5D9D8
:1027500003207FE16F4A136843F480331360B5E7C9
:102760006C4B1A6842F480221A601A6842F4803274
:102770001A60ABE700F020FE0546664B1B6813F4B9
:10278000003FC3D000F018FE401B6428F5D9032099
:1027900060E1604B5B6813F4800FC6D15D4B1B6832
:1027A00013F0020F03D0E368012B40F05081594A27
:1027B000136823F0F803216943EAC1031360236817
:1027C00013F0080F42D063696BB3534B0122C3F877
:1027D000802E00F0F1FD05464E4B5B6F13F0020FAB
:1027E00034D100F0E9FD401B0228F5D9032031E186
:1027F000484A136823F0F803216943EAC1031360D0
:10280000DDE7454B00221A6000F0D6FD0546414B3E
:102810001B6813F0020FD2D000F0CEFD401B02283F
:10282000F5D9032016E13C4B0022C3F8802E00F0BE
:10283000C3FD0546374B5B6F13F0020F06D000F067
:10284000BBFD401B0228F5D9032003E1236813F0E8
:10285000040F77D02F4B1B6C13F0805F33D1002314
:1028600001932C4B1A6C42F080521A641B6C03F0DB
:1028700080530193019B0125284B1B6813F4807F33
:1028800023D0A368012B34D0052B38D0214B1A6FED
:1028900022F001021A671A6F22F004021A67A36875
:1028A000002B3DD000F088FD06461A4B1B6F13F03D
:1028B000020F46D100F080FD801B41F28833984220
:1028C000F3D90320C6E00025D6E7144A136843F481
:1028D0008073136000F070FD0646104B1B6813F404
:1028E000807FCED100F068FD801B0228F5D903203F
:1028F000B0E0084A136F43F001031367CFE7054BBD
:102900001A6F42F004021A671A6F42F001021A6746
:10291000C5E700BF00380240000047420070004099
:1029200000F04AFD0646524B1B6F13F0020F08D011
:1029300000F042FD801B41F288339842F3D9032016
:1029400088E0EDB9A369002B00F08380484A9268C3
:1029500002F00C02082A51D0022B17D0454B00225E
:102960001A6600F029FD0446414B1B6813F0007FF6
:1029700042D000F021FD001B0228F5D9032069E0B8
:102980003B4A136C23F080531364DBE7394B00227E
:102990001A6600F011FD0546354B1B6813F0007FE9
:1029A00006D000F009FD401B0228F5D9032051E0B4
:1029B000E369226A1343626A43EA8213A26A5208F5
:1029C000013A43EA0243E26A43EA0263284A536057
:1029D000284B01221A6600F0EFFC0446244B1B68CA
:1029E00013F0007F06D100F0E7FC001B0228F5D9A8
:1029F00003202FE000202DE000202BE0012B2BD026
:102A00001B4B5B6803F48001E269914226D103F01D
:102A10003F02216A8A4223D1616A47F6C0721A4096
:102A2000B2EB811F1ED103F44031A26A5208013A71
:102A3000B1EB024F18D103F07063E26AB3EB026F9F
:102A400014D1002006E001207047012002E001209F
:102A500000E0002002B070BD0120FBE70120F9E793
:102A60000120F7E70120F5E70120F3E70120F1E776
:102A7000003802400000474208B5254B9B6803F030
:102A80000C03042B3FD0082B3FD1214B5A6802F096
:102A90003F025B6813F4800F12D01D4B5968C1F3DD
:102AA00088111C480023A1FB0001FEF7F7F8184B22
:102AB0005B68C3F3014301335B00B0FBF3F025E037
:102AC000134B5968C1F3881C4FEA4C11B1EB0C0051
:102AD0006EEB0E0E4FEA8E1343EA90638101091AE2
:102AE00063EB0E03DB0043EA5173C90011EB0C0CDE
:102AF00043F10003990200234FEA8C2041EA9C51E4
:102B0000FEF7CCF8D3E7034800E0034808BD00BF58
:102B10000038024040787D010024F400002800F0D5
:102B20009B8070B50D4604464F4B1B6803F00703AE
:102B30008B4208D2CBB24C4A1370136803F00703E0
:102B40008B4240F08B80236813F0020F17D013F0F4
:102B5000040F04D0454A936843F4E053936023681C
:102B600013F0080F04D0414A936843F46043936024
:102B70003E4A936823F0F003A1680B4393602368F7
:102B800013F0010F32D06368012B21D09A1E012A65
:102B900025D9364A126812F0020F61D033498A688B
:102BA00022F0030213438B6000F006FC06462F4B15
:102BB0009B6803F00C036268B3EB820F16D000F041
:102BC000FBFB801B41F288339842F0D9032042E09E
:102BD000264A126812F4003FE0D101203BE0234A6C
:102BE000126812F0007FD9D1012034E01E4B1B681F
:102BF00003F00703AB4207D9EAB21B4B1A701B68FC
:102C000003F00703AB422DD1236813F0040F06D065
:102C1000164A936823F4E053E1680B4393602368FA
:102C200013F0080F07D0114A936823F46043216919
:102C300043EAC1039360FFF71FFF0C4B9B68C3F38C
:102C400003130B4AD35CD8400A4B18600A4B186830
:102C500000F066FB002070BD012070470120FAE7FC
:102C60000120F8E70120F6E7003C0240003802406E
:102C7000948002080C00002008000020014B186816
:102C8000704700BF0C00002008B5FFF7F7FF044BAA
:102C90009B68C3F38223034AD35CD84008BD00BFBE
:102CA00000380240A480020808B5FFF7E7FF044B94
:102CB0009B68C3F34233034AD35CD84008BD00BFCE
:102CC00000380240A480020800230F2B00F2E480A9
:102CD00070B582B060E085685E000324B44025EAE8
:102CE0000405CC68B4402C438460456825EA02059D
:102CF0004C68C4F300129A402A4342605AE0DC0850
:102D0000083450F8246003F0070295000F22AA400F
:102D100026EA020E0A69AA4042EA0E0240F824207E
:102D20005CE0072200E0002202FA0EF22A4302349D
:102D30005A4D45F824205A4A94686FEA0C0224EA56
:102D40000C054E6816F4801F01D04CEA0405544C63
:102D5000A560E46802EA04054E6816F4001F01D07D
:102D60004CEA04054E4CE560646802EA04054E68CE
:102D700016F4003F01D04CEA0405494C6560246814
:102D800022404D6815F4803F01D04CEA0402444CC7
:102D9000226001330F2B7DD801229A400C6804EA8F
:102DA000020C32EA0404F4D14C6804F00304013C40
:102DB000012C90D94A6802F00302032A09D0C468A2
:102DC0005D000322AA4024EA02048A68AA40224342
:102DD000C2604A6802F00302022A90D004684FEAF7
:102DE000430E032202FA0EF224EA02044A6802F0B9
:102DF000030202FA0EF2224302604A6812F4403FD4
:102E0000C7D000220192274A546C44F48044546491
:102E1000526C02F480420192019A9C08A51C1F4A40
:102E200052F8255003F003024FEA820E0F2202FAF5
:102E30000EF225EA02051C4A90423FF474AF02F5F7
:102E4000806290421AD002F58062904218D002F55A
:102E50008062904216D002F58062904214D002F552
:102E60008062904212D002F58062904210D002F54A
:102E7000806290423FF455AF082255E7012253E7A4
:102E8000022251E703224FE704224DE705224BE7D8
:102E9000062249E702B070BD704700BF003801400C
:102EA000003C014000380240000002400AB181614C
:102EB0007047090481617047436901EA030221EA0E
:102EC000030141EA024181617047000010B40368C8
:102ED000D9B210390C4AA2FB014212090B4CA25C78
:102EE000C2655F2909D923F47F7323F003030433F8
:102EF0008365806D5DF8044B704723F47F7323F086
:102F000003038365F5E700BFABAAAAAA8C80020879
:102F1000836A826992B9012B0AD0022B02D00BB1CD
:102F200000207047C36A13F0807F28D100207047CB
:102F3000C36AB3F1C07F24D000207047B2F5005FB0
:102F400009D0022B25D9032B25D1C36A13F0807F2A
:102F500023D100207047032B03D8DFE803F01404CB
:102F6000140A00207047C36A13F0807F0DD100203F
:102F70007047C36AB3F1C07F09D0002070470120B9
:102F800070470120704701207047012070470120E1
:102F900070470120704700207047012070470000F3
:102FA00070B5044600F008FA002C5BD005460223F9
:102FB00084F83530002384F834302268136823F015
:102FC0000103136023681A6812F0010F0AD000F0A1
:102FD000F3F9431B052BF5D920236365032084F8FF
:102FE000350070BD1A68204810406168A2680A4325
:102FF000E1680A4321690A4361690A43A1690A43F6
:10300000E1690A43216A0A430243616A04291ED026
:103010001A602668756925F00705636A1D43042B4D
:1030200007D1A36A1D43E36A1BB12046FFF770FF77
:1030300090B975612046FFF749FFE26D3F23934049
:10304000836000206065012384F83530C9E7E16AB8
:10305000206B01430A43DBE740236365012084F8CA
:103060003500BEE70120BCE73F8010F0F0B583B02B
:10307000044600230193724B1D68724BA3FB053578
:10308000AD0A876D3E68C26D08239340334210D06D
:1030900003681A6812F0040F0BD01A6822F00402B9
:1030A0001A60C26D08239340BB60436D43F0010377
:1030B0004365E26D01239340334209D0226852698F
:1030C00012F0800F04D0BB60636D43F002036365B0
:1030D000E26D04239340334209D02268126812F053
:1030E000020F04D0BB60636D43F004036365E26DBF
:1030F00010239340334224D02268126812F0080F44
:103100001FD0BB6023681A6812F4802F0DD01B6893
:1031100013F4002F04D1236C9BB12046984710E094
:10312000A36C73B1204698470BE01A6812F4807FB5
:1031300003D11A6822F008021A60236C0BB12046F2
:103140009847E26D20239340334255D0226812689D
:1031500012F0100F50D0BB6094F83530DBB2052B65
:103160000ED023681A6812F4802F33D01B6813F432
:10317000002F2AD1636C002B3ED0204698473BE0BD
:103180002268136823F0160313602268536923F042
:1031900080035361236CA3B12268136823F00803F2
:1031A0001360E26D3F239340BB60012384F8353008
:1031B000002384F83430236D002B3FD020469847FD
:1031C0003CE0A36C002BE7D1EBE7E36BA3B1204617
:1031D000984711E01A6812F4807F09D11A6822F02A
:1031E00010021A60012384F83530002384F834304B
:1031F000E36B0BB120469847636DFBB1636D13F031
:10320000010F17D0052384F835302268136823F0A6
:1032100001031360019B01330193AB4204D823687F
:103220001B6813F0010FF5D1012384F8353000231A
:1032300084F83430E36C0BB12046984703B0F0BDFE
:103240000C000020B5814E1B074AD36823F4E063CD
:103250001B041B0C000200F4E060034343F0BF6357
:1032600043F40033D360704700ED00E000B5194B24
:10327000DB68C3F30223C3F1070CBCF1040F28BFC2
:103280004FF0040C03F1040EBEF1060F18D9033BF6
:103290004FF0FF3E0EFA0CFC21EA0C0199400EFAA9
:1032A00003F322EA0303194300280BDB0901C9B227
:1032B00000F1604000F5614080F800135DF804FB08
:1032C0000023E5E700F00F000901C9B2024B1954D1
:1032D000F4E700BF00ED00E014ED00E0002807DB9C
:1032E00000F01F02400901239340024A42F82030B7
:1032F000704700BF00E100E00138B0F1807F0BD2E1
:103300004FF0E0235861054AF02182F82310002095
:10331000986107221A6170470120704700ED00E0B4
:1033200010B504460E4B18784FF47A73B3FBF0F3E4
:103330000C4A1068B0FBF3F0FFF7DEFF68B90F2C02
:1033400001D901200AE0002221464FF0FF30FFF7AB
:103350008DFF054B1C60002000E0012010BD00BF68
:10336000040000200C0000200800002008B50B4BD2
:103370001A6842F400721A601A6842F480621A6095
:103380001A6842F480721A600320FFF75DFF0F2075
:10339000FFF7C6FFFEF7C8FD002008BD003C024055
:1033A000034A1168034B1B780B441360704700BF3E
:1033B000F802002004000020014B1868704700BF8D
:1033C000F802002038B50446FFF7F6FF0546B4F1D1
:1033D000FF3F02D0044B1B781C44FFF7EDFF401B5E
:1033E000A042FAD338BD00BF0400002000285AD004
:1033F00010B50446436A33B94368B3F5827F05D0FC
:103400000023C36102E00023036143610023A36240
:1034100094F85130002B40D0022384F851302268B8
:10342000136823F040031360636803F48273A26897
:1034300002F404421343E26802F400621343226977
:1034400002F002021343626902F001021343A2690F
:1034500002F400721343E26902F038021343226A55
:1034600002F080021343A26A02F40052216813435F
:103470000B60638B03F00403626A02F010022168A0
:1034800013434B602268D36923F40063D3610020A7
:103490006065012384F8513010BD84F85030204617
:1034A000FEF7C8FDB8E701207047000030B4036A9A
:1034B000026A22F0010202624268846924F0730405
:1034C0000D682C4323F0020C8B6843EA0C03104D6B
:1034D000A84203D005F58065A84205D123F0080372
:1034E000CD682B4323F00403094DA84203D005F512
:1034F0008065A84205D122F440724D692A438D6946
:103500002A43426084614A684263036230BC704768
:103510000000014030B4036A026A22F48072026241
:103520004268C46924F0730C0C6844EA0C0523F467
:1035300000738C6843EA0423114CA04203D004F5C5
:103540008064A04206D123F40063CC6843EA0423DC
:1035500023F480630A4CA04203D004F58064A042A7
:1035600007D122F440524C6942EA04128C6942EAC3
:1035700004124260C5614A68C263036230BC70478E
:103580000000014030B4036A026A22F480520262F1
:103590004468C26922F4E6420D6842EA052223F437
:1035A00000538D6843EA0533094DA84203D005F561
:1035B0008065A84204D124F480444D6944EA85140E
:1035C0004460C2614A680264036230BC704700BF55
:1035D0000000014010B4036A046A24F0010404628C
:1035E000846924F0F00C4CEA021223F00A030B4326
:1035F000826103625DF8044B704710B4036A046A89
:1036000024F010040462846924F4704C4CEA023201
:1036100023F0A00343EA0113826103625DF8044BC7
:103620007047836823F070030B4343F00703836004
:1036300070477047704770477047704770B50446D1
:103640000368DE681D6915F0020F10D016F0020F36
:103650000DD06FF002021A610123037703689B69A2
:1036600013F0030F5ED0FFF7E6FF0023237715F07A
:10367000040F12D016F0040F0FD023686FF004026D
:103680001A610223237723689B6913F4407F4FD08C
:103690002046FFF7D0FF0023237715F0080F12D044
:1036A00016F0080F0FD023686FF008021A61042388
:1036B00023772368DB6913F0030F40D02046FFF720
:1036C000BAFF0023237715F0100F12D016F0100F59
:1036D0000FD023686FF010021A6108232377236844
:1036E000DB6913F4407F31D02046FFF7A4FF0023AD
:1036F000237715F0010F02D016F0010F2DD115F030
:10370000800F02D016F0800F2FD115F0400F02D09D
:1037100016F0400F31D115F0200F02D016F0200F17
:1037200033D170BDFFF786FF2046FFF785FF9CE78A
:103730002046FFF77FFF2046FFF77EFFABE72046DE
:10374000FFF778FF2046FFF777FFBAE72046FFF73D
:1037500071FF2046FFF770FFC9E723686FF0010291
:103760001A61204601F03AFDC9E723686FF0800234
:103770001A61204600F006FCC7E723686FF040029C
:103780001A612046FFF759FFC5E723686FF0200252
:103790001A61204600F0F5FBC3E700000368344AD5
:1037A000904212D0B0F1804F0FD0A2F57C429042EF
:1037B0000BD002F58062904207D002F58062904201
:1037C00003D002F57842904203D123F070034A6897
:1037D0001343274A90422AD0B0F1804F27D0A2F558
:1037E0007C42904223D002F5806290421FD002F5C5
:1037F000806290421BD002F57842904217D002F5C9
:103800007052904213D002F5806290420FD002F5C0
:10381000806290420BD0A2F59832904207D002F518
:103820008062904203D002F58062904203D123F47B
:103830004073CA68134323F080034A69134303604B
:103840008B68C3620B688362094B984203D003F50F
:103850008063984201D10B690363012343610369CB
:1038600013F0010F03D0036923F0010303617047D4
:103870000000014040B310B5044690F83D30F3B16C
:10388000022384F83D30214651F8040BFFF786FFF0
:10389000012384F8463084F83E3084F83F3084F8C1
:1038A000403084F8413084F8423084F8433084F862
:1038B000443084F8453084F83D30002010BD80F855
:1038C0003C30FEF7EFFBDBE70120704740B310B55B
:1038D000044690F83D30F3B1022384F83D30214690
:1038E00051F8040BFFF75AFF012384F8463084F89F
:1038F0003E3084F83F3084F8403084F8413084F81A
:10390000423084F8433084F8443084F8453084F8F9
:103910003D30002010BD80F83C30FEF71FFCDBE797
:103920000120704740B310B5044690F83D30F3B124
:10393000022384F83D30214651F8040BFFF72EFF97
:10394000012384F8463084F83E3084F83F3084F810
:10395000403084F8413084F8423084F8433084F8B1
:10396000443084F8453084F83D30002010BD80F8A4
:103970003C30FFF75EFEDBE701207047002856D0A1
:10398000F8B50D46044690F83D30002B4AD002238E
:1039900084F83D302268936823F4804323F00703C2
:1039A0009360214651F8040BFFF7F8FE21688A68FE
:1039B0008B690E6A2868104323F4407C2CF0030CBA
:1039C000AA68AB6942EA032343EA0C0323F47C436D
:1039D00023F0FC03EA69EF6847EA022C4CEA030C87
:1039E0002A6A13032A6943EA021343EA0C0326F006
:1039F000AA066A686D6942EA051232438860216846
:103A00008B6123681A62012384F8463084F83E30C3
:103A100084F83F3084F8423084F8433084F83D30F5
:103A20000020F8BD80F83C30FEF7CCFBAFE701206A
:103A30007047000030B4036A026A22F0100202628A
:103A40004468826922F4E6420D6842EA052223F0C6
:103A500020038D6843EA0513114DA84203D005F5F4
:103A60008065A84206D123F08003CD6843EA0513A0
:103A700023F040030A4DA84203D005F58065A84213
:103A800007D124F440644D6944EA85048D6944EA11
:103A90008504446082614A688263036230BC704777
:103AA0000000014090F83C30012B28D010B50446AE
:103AB000012380F83C300C2A1CD8DFE802F0071BF9
:103AC0001B1B0C1B1B1B111B1B1B16000068FFF78D
:103AD000EDFC00200FE00068FFF7ACFF00200AE0DB
:103AE0000068FFF717FD002005E00068FFF74AFDBA
:103AF000002000E00120002384F83C3010BD0220AB
:103B0000704738B590F83C30012B66D004460D461E
:103B1000012380F83C300C2A5AD8DFE802F007591C
:103B200059591B5959593059595944000068FFF7E0
:103B3000BDFC2268936943F008039361226893698E
:103B400023F0040393612268936929690B4393610D
:103B500000203EE00068FFF76DFF2268936943F4A0
:103B6000006393612268936923F480639361226800
:103B70009369296943EA01239361002029E00068E1
:103B8000FFF7C8FC2268D36943F00803D3612268B9
:103B9000D36923F00403D3612268D36929690B43F5
:103BA000D361002015E00068FFF7ECFC2268D369C0
:103BB00043F40063D3612268D36923F48063D36143
:103BC0002268D369296943EA0123D361002000E018
:103BD0000120002384F83C3038BD0220FCE710B4FB
:103BE000846824F47F4C42EA03220A4342EA0C022E
:103BF00082605DF8044B704790F83C30012B78D020
:103C000010B50446012380F83C30022380F83D3093
:103C10000268936823F47F4323F0770393600B6873
:103C2000602B4CD029D8402B54D00CD9502B22D10A
:103C3000CA6849680068FFF7CDFC50212068FFF78B
:103C4000F0FC002005E0202B0DD009D9302B0AD044
:103C50000120012384F83D30002384F83C3010BD5E
:103C60000BB1102B05D119462068FFF7DAFC0020B4
:103C7000EFE70120EDE70120EBE7B3F5805F34D0FB
:103C8000B3F5005F0CD1CB684A6889680068FFF71C
:103C9000A6FF2268936843F4804393600020D8E72E
:103CA000702B24D1CB684A6889680068FFF797FFBA
:103CB0002268936843F0770393600020C9E7CA68DD
:103CC00049680068FFF799FC60212068FFF7A9FCAC
:103CD0000020BEE7CA6849680068FFF77BFC402106
:103CE0002068FFF79EFC0020B3E70020B1E7012029
:103CF000AFE70220704701F01F01012303FA01FC26
:103D0000036A23EA0C030362036A02FA01F10B431C
:103D10000362704710B504460846002942D194F862
:103D20003E30DBB2013B18BF0123002B6ED10028CF
:103D300051D1022384F83E30012201462068FFF76A
:103D4000DAFF2368334A934203D002F5806293423C
:103D500003D15A6C42F400425A6423682D4A9342BC
:103D600049D0B3F1804F46D0A2F57C42934242D075
:103D700002F5806293423ED002F5806293423AD0CF
:103D800002F57842934236D002F57052934232D017
:103D9000A2F5943293422ED01A6842F001021A60C2
:103DA000002032E0042908D008290DD094F84130D1
:103DB000DBB2013B18BF0123B7E794F83F30DBB219
:103DC000013B18BF0123B0E794F84030DBB2013B60
:103DD00018BF0123A9E7042805D0082807D002232B
:103DE00084F84130A8E7022384F83F30A4E7022397
:103DF00084F84030A0E79A6802F00702062A07D04C
:103E00001A6842F001021A60002010BD0120FCE790
:103E10000020FAE70000014038B504460D460022B4
:103E20000068FFF768FF23681D4A934218D002F527
:103E30008062934214D02368196A41F21112114230
:103E400008D1196A40F24442114203D11A6822F0A3
:103E500001021A609DB9012384F83E30002038BD6C
:103E6000196A41F211121142E5D1196A40F2444235
:103E70001142E0D15A6C22F400425A64DBE7042D6F
:103E800005D0082D07D0012384F84130E6E701234F
:103E900084F83F30E2E7012384F84030DEE700BFDA
:103EA0000000014090F83C30012B3DD010B40123BC
:103EB00080F83C30022380F83D3003685A689C68E3
:103EC00022F0700C0A6842EA0C025A600368174A32
:103ED00093421AD0B3F1804F17D0A2F57C4293429F
:103EE00013D002F5806293420FD002F580629342B4
:103EF0000BD002F57842934207D002F570529342FC
:103F000003D0A2F59432934204D124F080044A688D
:103F100014439C60012380F83D30002380F83C303E
:103F200018465DF8044B70470220704700000140BE
:103F300090F83C30012B22D0012380F83C30CB6834
:103F400023F440738A68134323F480634A6813435D
:103F500023F400630A68134323F480530A6913436C
:103F600023F400534A69134323F48043CA6913437B
:103F700002685364002380F83C30184670470220E2
:103F8000704770477047026802F10C0353E8003F26
:103F900023F490730C3242E800310029F3D1026817
:103FA00002F1140353E8003F23F00103143242E806
:103FB00000310029F3D1036B012B05D0202380F8B9
:103FC0004230002303637047026802F10C0353E898
:103FD000003F23F010030C3242E800310029F3D1F6
:103FE000ECE7000038B504460268136923F4405337
:103FF000C1680B4313618368026913434269134329
:10400000C2691A430168CB6823F4164323F00C03FA
:104010001343CB600268536923F4407381690B43F7
:1040200053610368314A934206D002F5806293429D
:1040300002D0FEF729FE01E0FEF736FEE369B3F594
:10404000004F29D00021031849411B1841F10001FC
:10405000C90041EA5371DB00181863684FEA830214
:104060004FEA937341F10001FCF718FE204DA5FBC8
:1040700000325109642303FB11031B013233A5FBFA
:1040800003235B0903F0F00202EB011203F00F03BC
:10409000216813448B6038BD0023021843EB0301F1
:1040A000121841F10001C90041EA5271D200101802
:1040B00041F10001626892185B41FCF7EFFD0C4D85
:1040C000A5FB00325109642303FB1103DB003233EB
:1040D000A5FB03235B095A0002F4F87202EB0112FC
:1040E00003F00703216813448B60D4E700100140FC
:1040F0001F85EB512DE9F04383B005460E46174668
:104100009946DDF828802C68246836EA04030CBF41
:104110004FF0010C4FF0000CBC4528D1B8F1FF3F27
:10412000F1D0FFF749F9A0EB0900404523D8B8F1D9
:10413000000F22D02B68DA6812F0040FE3D0802E33
:10414000E1D0402EDFD01A6812F0080FDBD0002437
:1041500001941A6801925B680193019B2846FFF75E
:1041600012FF08236B6485F84040012000E0002026
:1041700003B0BDE8F0830320FAE70320F8E760B35B
:1041800010B5044690F8413013B3242384F841302D
:104190002268D36823F40053D3602046FFF722FF40
:1041A0002268136923F4904313612268536923F052
:1041B0002A0353612268D36843F40053D36000207C
:1041C0006064202384F8413084F84230606310BD7D
:1041D00080F84030FEF788F8D7E7012070472DE9D6
:1041E000F04182B01E4690F84130DBB2202B56D110
:1041F00004460D469046002955D00AB901204FE0EB
:1042000000234364212380F84130FFF7D5F80746A7
:10421000A4F82480A4F82680A368B3F5805F02D0B8
:104220004FF0000814E023692BB34FF000080FE0B3
:10423000202384F84130032032E038F8023B226822
:10424000C3F308035360E28C92B2013A92B2E28463
:10425000E38C9BB293B100963B460022802120461E
:10426000FFF748FF0028E3D1002DE6D015F8012B19
:1042700023685A60E7E7A8460025E9E700963B4631
:10428000002240212046FFF735FF18B9202384F88B
:10429000413005E0202384F84130032000E0022073
:1042A00002B0BDE8F0810120FAE70000034AD2F82D
:1042B000883043F47003C2F88830704700ED00E0A6
:1042C00010B503460C4A0D490D48006840B10C4832
:1042D00000680344521A934206D8094A136010BD7D
:1042E0000748084C0460F2E71BF072F80C230360E7
:1042F0004FF0FF30F3E700BF000002200004000091
:10430000FC020020B81C00200120704708B51BF0FB
:104310005FF8162303604FF0FF3008BD08B54FF07B
:10432000FF31FFF7F3FFFEE770B50C461646002598
:1043300006E0AFF30080214601F8010B01350C4681
:10434000B542F6DB304670BD70B50C46164600250A
:1043500004E014F8010B00F0B7FB0135B542F8DBBF
:10436000304670BD4FF0FF3070474FF400534B6044
:1043700000207047012070470020704700B595B0BD
:104380003022002108A81BF055FE0023039304935C
:1043900005930693079301931F4A116C41F08051D6
:1043A0001164126C02F080520192019A02931B4A2E
:1043B000116841F480411160126802F48042029257
:1043C000029A0222089201210B9110210C910E9267
:1043D0000F9308231093A82311931292042313938D
:1043E00008A8FEF74DF988B90F230393022304931D
:1043F000002305934FF4A05306930793052103A8C8
:10440000FEF78CFB28B915B05DF804FB00F03CFC0E
:10441000EAE700F039FCF6E700380240007000409F
:1044200000B585B0002300930193029303932D48B8
:104430002D4A02604360836001220261037680F8A6
:104440002030C36202F170628262C3600522C261E1
:1044500080F830304361FEF71BF800282FD101238C
:1044600000930193029369461E48FEF73DF848BB4E
:10447000032300930223019369461A48FEF734F898
:1044800018BB002300930323019369461548FEF7E8
:104490002BF8E8B9022300930423019369461148DD
:1044A000FEF722F8B8B90A23009305230193694661
:1044B0000C48FEF719F888B905B05DF804FB00F068
:1044C000E3FBCCE700F0E0FBD2E700F0DDFBD8E750
:1044D00000F0DAFBDEE700F0D7FBE4E700F0D4FB06
:1044E000EAE700BF040300200020014008B50E48A1
:1044F0000E4B03604FF48273436000238360C360FC
:10450000036143614FF4007282612022C261036241
:10451000436283620A23C362FEF768FF00B908BDE5
:1045200000F0B2FBFBE700BFAC030020003C004002
:1045300010B596B00024129413941494159410940A
:10454000119409940A940B940C940D940E940F9466
:104550002022214601A81BF06DFD2B482B4B036048
:1045600053234360846040F2E733C36004614461D5
:104570008461FFF77FF9002833D14FF48053129301
:1045800012A92148FFF738FB00282DD11E48FFF75C
:104590009DF900282BD100231093119310A91A48DC
:1045A000FFF780FC30BB002209920A920B920C921A
:1045B0000D920E920F9209A91348FFF773FAE0B912
:1045C0000023019302930393049305934FF4005245
:1045D0000692089301A90C48FFF7AAFC80B916B00F
:1045E00010BD00F051FBC8E700F04EFBCEE700F035
:1045F0004BFBD0E700F048FBD5E700F045FBDFE7D9
:1046000000F042FBEBE700BF040400200000014083
:1046100000B58FB000230A930B930C930D9308936E
:1046200009930193029303930493059306930793CD
:1046300025484FF0804202604360836040F2E732D9
:10464000C26003618361FFF715F950BB4FF48053DB
:104650000A930AA91C48FFF7CFFA28BB1A48FFF7AC
:1046600061F920BB00230893099308A91648FFF7B6
:1046700019FCF8B96023019300220292039205927B
:1046800001A91148FFF73DFAB8B90C2201A90E485B
:10469000FFF737FAA0B90C48FDF7CAFD0FB05DF877
:1046A00004FB00F0F1FAD1E700F0EEFAD6E700F0F3
:1046B000EBFAD7E700F0E8FADCE700F0E5FAE4E728
:1046C00000F0E2FAE7E700BF4C04002000B58FB02D
:1046D00000230A930B930C930D9308930993019372
:1046E0000293039304930593069307932548264A60
:1046F000026053224260836040F2E732C26003618D
:104700008361FFF7B7F858BB4FF480530A930AA9A7
:104710001C48FFF771FA30BB1A48FFF703F928BBB2
:1047200000230893099308A91648FFF7BBFB00BBB9
:1047300060230193002202920392059201A911487D
:10474000FFF7DFF9C0B904220DEB02010D48FFF7B6
:10475000D8F9A0B90B48FDF76BFD0FB05DF804FB6D
:1047600000F092FAD0E700F08FFAD5E700F08CFA6B
:10477000D6E700F089FADBE700F086FAE3E700F01D
:1047800083FAE7E7940400200004004000B593B0EA
:10479000242200210DEB02001BF04CFC00230793A8
:1047A0000893009301930293039304930593069354
:1047B0001F48204A0260436083604EF65F22C26059
:1047C00003618361FFF782F830BB03230993002361
:1047D0000A9301220B920C930D930E930F92109358
:1047E000119309A91248FFF7C9F8C0B9002307932C
:1047F000089307A90E48FFF755FB98B900230093CB
:10480000019302930493082269460948FFF74AF985
:1048100058B913B05DF804FB00F036FAD5E700F0A4
:1048200033FAE3E700F030FAE8E700F02DFAF0E7BA
:10483000DC0400200008004000B587B0002302938C
:10484000039304930593009301931548154A02605E
:1048500053224260836040F2E732C26003618361A9
:10486000FFF708F890B94FF48053029302A90C485F
:10487000FFF7C2F968B9002300930193694608481D
:10488000FFF710FB40B907B05DF804FB00F0FCF93E
:10489000E9E700F0F9F9EEE700F0F6F9F3E700BF19
:1048A00024050020000C004000B58DB0242200211A
:1048B00003A81BF0BFFB0023019302931248134A85
:1048C0000260436083604EF65F22C2600361436111
:1048D00083610323039301230593099303A9FFF73E
:1048E0004DF850B900230193029301A90648FFF740
:1048F000D9FA28B90DB05DF804FB00F0C5F9F1E76D
:1049000000F0C2F9F6E700BF6C050020000401408A
:1049100008B50A480A4B03604FF4E13343600023B3
:104920008360C36003610C2242618361C361FFF74E
:1049300026FC00B908BD00F0A7F9FBE7B40500208C
:104940000010014000B583B000210191094B1A6BA2
:1049500042F480021A631B6B03F480030193019BF2
:104960000A463820FEF782FC3820FEF7B7FC03B079
:104970005DF804FB003802402DE9F0478AB00024BE
:10498000059406940794089409940094484B1A6B74
:1049900042F004021A631A6B02F004020092009AB9
:1049A00001941A6B42F080021A631A6B02F08002C3
:1049B0000192019A02941A6B42F001021A631A6B77
:1049C00002F001020292029A03941A6B42F0020270
:1049D0001A631A6B02F002020392039A04941A6B90
:1049E00042F008021A631B6B03F008030493049B54
:1049F000304E22464FF440413046FEF757FADFF87A
:104A0000BCA0224603215046FEF750FADFF8B090D2
:104A1000224649F640014846FEF748FADFF8A480EE
:104A200022464BF203414046FEF740FA224F22460F
:104A300004213846FEF73AFA4FF440430593012526
:104A400006950794089405A93046FEF73DF903231F
:104A5000059306950794089405A95046FEF734F986
:104A60003E2305930694079405A93046FEF72CF9DA
:104A700049F64003059306950794089405A948460E
:104A8000FEF722F94BF20343059306950794089429
:104A900005A94046FEF718F90423059306950794E7
:104AA000089405A93846FEF70FF90AB0BDE8F0876B
:104AB0000038024000080240000C0240001C024086
:104AC000000002400004024000B583B08DF80700EA
:104AD00001231A460DF107010248FFF780FB03B0DE
:104AE0005DF804FBB4050020012800D070474FF6A4
:104AF000FF739942FAD110B5044C204601F03AFAFE
:104B0000034A0449204600F078FD10BDFC05002052
:104B100000000020DD61000870B50446806A10B115
:104B200003681B6A98470023A362666AA6B19EB118
:104B300076B106F11C0501E000232B60AE4207D0E0
:104B400055F8040D0028F7D0082100F0CFFDF3E759
:104B50001C21304600F0CAFD00236362256A5DB166
:104B600055B1A86810B1202100F0C0FD0023AB6052
:104B70000C21284600F0BAFD00232362E06910B141
:104B8000042100F0B3FD0023E361A06910B10C2102
:104B900000F0ACFD0023A361606910B1202100F09A
:104BA000A5FD00236361206910B1042100F09EFD82
:104BB00000232361E06810B1082100F097FD002375
:104BC000E360A06810B1182100F090FD0023A360FD
:104BD000606810B1012100F089FD00236360206846
:104BE00010B11C2100F082FD00232360204670BD1F
:104BF00010B58CB0FEF7BAFBFFF7C0FBFFF7BCFEA9
:104C0000FFF7A0FEFFF70CFCFFF770FCFFF790FC2E
:104C1000FFF7FEFCFFF75AFDFFF7B8FDFFF70CFEAC
:104C2000FFF742FEFFF774FE12481CF013F8124C17
:104C30001249204612F044FD12F08FFC1049204624
:104C400012F03EFD0F4912F03BFD4FF47A70FEF773
:104C5000B9FB2C22002101A81BF0ECF901A800F0FF
:104C600041F801A800F0A6F9FEE701A8FFF754FFFC
:104C700000F03EFDAC800208DC080020B480020891
:104C8000C0800208D080020872B6FEE708B54FF671
:104C9000FF710120FFF728FF08BD0000012800D0A8
:104CA00070474FF6FF739942FAD110B5044C204675
:104CB00001F060F9034A0449204600F09EFC10BD53
:104CC0000006002000000020DD61000810B5044649
:104CD000006810B1082100F009FD00232360204680
:104CE00010BD000030B597B0082001F05CF8044614
:104CF0004FF48052A74900F01FFA0EE00623C3F1DB
:104D0000060308AA02EB830408AB9C4200F025814D
:104D1000043C2046FFF7DAFFF6E7002308930894E7
:104D2000082001F040F804464FF40052994900F081
:104D300003FA07E00523E2E70821204600F0D6FC4D
:104D40000623DCE7002309930994082001F02BF8DF
:104D500004464FF400428F4900F0EEF907E00423C7
:104D6000CDE70821204600F0C1FC0523C7E700235A
:104D70000A930A94082001F016F804464022864956
:104D800000F0DAF905E00821204600F0AFFC04232A
:104D9000B5E700230B930B94082001F004F80446B8
:104DA0004FF480527C4900F0C7F907E00223A6E7E0
:104DB0000821204600F09AFC0323A0E700230C936F
:104DC0000C94082000F0EFFF04464FF40062724993
:104DD00000F0B2F907E0012391E70821204600F036
:104DE00085FC02238BE700230D930D94082000F02F
:104DF000DAFF04464FF40042674900F09DF907E0EE
:104E000000237CE70821204600F070FC012376E7B0
:104E100000230E930E9408AA06230FA9002B0DDB86
:104E2000106841F8040B002042F8040B013BF5E741
:104E30000821204600F05AFC002360E70FA901A8D2
:104E400000F0E8FA16AC01E0002323600FAB9C42AF
:104E500007D054F8040D0028F6D0082100F046FCD5
:104E6000F2E7012419E06420FEF7ACFA0DE008AC8B
:104E700001AB9C4200F0878054F8040D10B108216A
:104E800000F034FC00232360F2E7294601A800F07B
:104E900003FB01E008ACEBE70134072C05DCE5B2CD
:104EA000294601A800F0C8FADDE701240FE008ACAC
:104EB000DEE76420FEF786FA01E008ACD8E7294671
:104EC00001A800F019FB01E008ACD1E70134082C7F
:104ED00005DCE5B2294601A800F00EFBE9E70FACBE
:104EE00001E00023236008AB9C4207D054F8040D76
:104EF0000028F6D0082100F0F9FBF2E708AC01E049
:104F00000023236001AB9C4207D054F8040D002815
:104F1000F6D0082100F0EAFBF2E708AC01E000233C
:104F2000236001AB9C4207D054F8040D0028F6D052
:104F3000082100F0DBFBF2E70FAC01E00023236067
:104F400008AB9C4223D054F8040D0028F6D0082169
:104F500000F0CCFBF2E70323D1E600F0C9FB16AC6E
:104F60000FAB9C4204D0043C2046FFF7AFFEF7E7AE
:104F70000FAC08AB9C4208D0043C2046FFF7A6FECD
:104F8000F7E708AC74E70FACF3E700F0B1FB17B03C
:104F900030BD00BF000402400000024010B50446CE
:104FA000006810B1202100F0A1FB002323602046FF
:104FB00010BD000010B586B0202000F0F4FE0446BD
:104FC00004222B4900F030F9002304930494059443
:104FD000049305A901A800F0D1F905E0202120469D
:104FE00000F084FB00F084FB059810B1202100F054
:104FF0007DFB002305939FED1F0A4FF42F7101A83D
:1050000000F0C1F94FF47A70FEF7DCF901A800F066
:10501000D0F94FF4FA70FEF7D5F99FED160A4FF468
:105020007A72114601A800F0C9F9049810B1202144
:1050300000F05CFB00230493039810B1202100F0E2
:1050400055FB00230393049810B1202100F04EFB80
:105050000023049306B010BD05A8FFF79FFF04A826
:10506000FFF79CFF00F044FB03A8FFF797FFF6E76C
:10507000940400200000A04208B54FF6FF71012003
:10508000FFF70CFE08BD0000012800D070474FF666
:10509000FF739942FAD110B5044C204600F06AFF24
:1050A000034A0449204600F0A8FA10BD0406002077
:1050B00000000020DD61000808B54FF6FF710120F7
:1050C000FFF7E2FF08BD0000012800D070474FF64F
:1050D000FF739942FAD110B5044C204600F04AFF04
:1050E000034A0449204600F088FA10BD0806002053
:1050F00000000020DD61000808B54FF6FF710120B7
:10510000FFF7E2FF08BD0000012800D070474FF60E
:10511000FF739942FAD110B5044C204600F02AFFE3
:10512000034A0449204600F068FA10BD0C0600202E
:1051300000000020DD61000801608280704708B532
:10514000012281880068FDF7B1FE08BD08B5002284
:1051500081880068FDF7AAFE08BD08B5818800684F
:10516000FDF7AAFE08BD08B54FF6FF710120FFF755
:10517000CBFF08BD012800D070474FF6FF7399425E
:10518000FAD110B5044C204600F0F4FE034A04495D
:10519000204600F032FA10BD20060020000000205A
:1051A000DD6100080146002300E00133032B08D82D
:1051B000054A52F823000028F7D002688A42F4D149
:1051C00000E00020704700BF1006002008B502482C
:1051D0001BF040FD08BD00BFD480020808B5FFF7F2
:1051E000E1FF08B1FFF7F2FF08BD08B54FF6FF7108
:1051F0000120FFF7BFFF08BD012800D070474FF620
:10520000FF739942FAD110B5044C204600F0B2FE6B
:10521000034A0449204600F0F0F910BD240600209E
:1052200000000020DD61000810B504460023C360C3
:1052300000202061636121606260CB68A360FDF79C
:1052400023FD4000A06123685B68E361204610BD38
:1052500008B541680068FEF75DFD08BD9FED1C7A4A
:10526000C0EE077AC0ED047AF5EEC07AF1EE10FADE
:1052700006DBB7EE007AF4EEC77AF1EE10FA06D943
:1052800043688BB903681B68C2685A6370478368B8
:10529000013307EE103AB8EE477A67EE277AFCEE54
:1052A000E77AC0ED037AEBE7042B06D0082B09D090
:1052B00003681B68C2681A64704703681B68C26889
:1052C0009A63704703681B68C268DA63704700BF5F
:1052D0000000C84241618369C26902FB0111B3FB4E
:1052E000F1F3013B836002681268D3620268D36005
:1052F000704708B541680068FEF78EFD08BD08B527
:105300004FF6FF710120FFF777FF08BD012800D09D
:1053100070474FF6FF739942FAD110B5044C2046FE
:1053200000F028FE034A0449204600F066F910BD4B
:105330002806002000000020DD61000808B54FF6B7
:10534000FF710120FFF7E2FF08BD0000012800D037
:1053500070474FF6FF739942FAD110B5044C2046BE
:1053600000F008FE034A0449204600F046F910BD4B
:105370002C06002000000020DD6100080B6883601F
:1053800000230B60704738B52DED028B04460D46A7
:10539000B0EE408A8068FFF75BFF2946A068FFF700
:1053A00099FFB0EE480AA068FFF758FFBDEC028BEA
:1053B00038BD08B58068FFF79CFF08BD38B50446C6
:1053C0001546FFF7E0FF2846FDF7FCFF2046FFF7F4
:1053D000F0FF38BD08B54FF6FF710120FFF7B6FFAB
:1053E00008BD0000012800D070474FF6FF739942B6
:1053F000FAD110B5044C204600F0BCFD034A044924
:10540000204600F0FAF810BD300600200000002011
:10541000DD61000802460623002B0CDB10B40C688B
:1054200042F8044B002441F8044B013B002BF6DA10
:105430005DF8044B7047704738B5044601390729B9
:1054400008D8DFE801F004080C1014181C200068CC
:10545000FFF775FE38BD4068FFF771FEFAE7806818
:10546000FFF76DFEF6E7C068FFF769FEF2E7006937
:10547000FFF765FEEEE74069FFF761FEEAE7806946
:10548000FFF75DFEE6E70025062DE3DC54F8250076
:10549000FFF755FE0135F7E738B50446013907290E
:1054A00008D8DFE801F004080C1014181C2000686C
:1054B000FFF74CFE38BD4068FFF748FEFAE780680A
:1054C000FFF744FEF6E7C068FFF740FEF2E7006929
:1054D000FFF73CFEEEE74069FFF738FEEAE7806938
:1054E000FFF734FEE6E70025062DE3DC54F825003F
:1054F000FFF72CFE0135F7E738B5044601390729D7
:1055000008D8DFE801F004080C1014181C2000680B
:10551000FFF723FE38BD4068FFF71FFEFAE78068FB
:10552000FFF71BFEF6E7C068FFF717FEF2E700691A
:10553000FFF713FEEEE74069FFF70FFEEAE7806929
:10554000FFF70BFEE6E70025062DE3DC54F8250007
:10555000FFF703FE0135F7E708B54FF6FF710120AD
:10556000FFF740FF08BD0000012800D070474FF64C
:10557000FF739942FAD110B5044C204600F0FAFCB2
:10558000034A0449204600F038F810BD34060020D4
:1055900000000020DD61000808B54FF6FF71012012
:1055A000FFF7E2FF08BD0000DFF834D0FEF77EFE13
:1055B0000C480D490D4A002302E0D458C45004336E
:1055C000C4188C42F9D30A4A0A4C002301E0136044
:1055D0000432A242FBD31AF057FBFFF709FB7047D6
:1055E0000000022000000020DC0200202CCC020879
:1055F000DC020020B81C0020FEE70B4601461846DE
:1056000019F0D8BE7FB500241023CDE90234036819
:1056100015469E6912686B46CDE90044B0479DF877
:10562000043003F00603062B03BF009B2B60012010
:10563000204604B070BD0098904214BF012006209F
:105640007047000010B5034B0360044600F03FFCB8
:10565000204610BD1881020810B50446FFF7F2FF7E
:105660002046082100F042F8204610BD2DE9F04107
:105670001F46DDE90834DDF81880984506461546D2
:1056800007D1079900F026FC18B165710020BDE82C
:10569000F0813946304600F01DFC0028F6D0012389
:1056A000C4F800802571A371F0E738B515461C4693
:1056B00000F010FC20B10823E3600623256023716D
:1056C00038BD73B505460C4601921E4600F002FC3B
:1056D00050B9032E08D82368019A5B6929462046F1
:1056E00002B0BDE87040184702B070BD18F088BC29
:1056F0001EB400F09CF81EBCFCF700FA0378472BA0
:1057000017D143784E2B14D18378552B11D1C37800
:10571000432B0ED10379432B0BD143792B2B08D18B
:1057200083792B2B05D1C07901288CBF0020012063
:1057300070470020704700002DE9F3411D460378B3
:10574000472B0E460246C17913D143784E2B10D118
:105750008378552B0DD1C378432B0AD10379462B7F
:1057600007D143794F2B04D18379522B01D10029E2
:1057700031D01046FFF7C2FF80F00100C4B2002311
:105780000020019053BB5CBB01290ABF52F8203CAA
:10579000A2F12003783B012908BF52F8202C1C6895
:1057A00018BF58320192236820469B689847C8B1B9
:1057B000019B1B6801930227336801AAD3F810806C
:1057C000214601233046C04770B1019B2B6038460B
:1057D00002B0BDE8F08101230C46D1E7034CE2E7BB
:1057E000034CE0E70127E7E70746F0E73C810208C2
:1057F0004481020810B5044600F032F80246204603
:10580000A4F12001FFF77AFF60B154F8043C0133A2
:10581000012B44F8043C03D1936844F8083C9160A0
:10582000012010BD9368002BF9D000F0A5FA10B547
:1058300000F016F8826801460AB900F09DFA02F1FC
:1058400020042046FFF75AFF40B1D369013BD361E2
:1058500013B9906988609361204610BD8860FBE7AA
:10586000004870473806002030B500231A4610F86B
:10587000015B05F07F04944023432C0602F10702EC
:10588000F5D40B6030BD30B500231A4610F8014B3B
:1058900004F07F0595402B43250602F10702F5D45D
:1058A0001F2A06D8640642BF4FF0FF3404FA02F202
:1058B00013430B6030BD50282DE9F341064688465E
:1058C00015461F4608D1033222F0030050F8044B5E
:1058D0003C6002B0BDE8F08100F00F030C2B2ED825
:1058E000DFE803F025071D25292D2D2D2D18212555
:1058F000290001A92846FFF7B7FF019C002CE7D03B
:1059000006F07003102B08BFA8464444330648BF76
:105910002468DDE701A92846FFF7B5FFEDE7284633
:1059200030F8024BEAE7284630F9024BE6E7284612
:1059300050F8044BE2E7284650F8084BDEE719F030
:10594000E7FC08B50346FF2B084610D003F07002B1
:10595000302A12D007D8202A0BD002D813F0600FBB
:1059600005D019F0D5FC402A0BD0502AF9D10020DF
:1059700008BDBDE8084022F074BBBDE8084022F035
:105980006DBBBDE80840FCF799BA13B50C4601465B
:105990002046CDE90032FFF7D4FFDDE900320146B1
:1059A000204602B0BDE81040FFF785BF73B50C4636
:1059B0001546064628B3FCF781FA034620462B60BD
:1059C00010F8011BFF291ED002462B1D3046FFF7A1
:1059D000DCFF10F8013B2B75FF2B16D010232B7525
:1059E00001A9FFF741FF019B0344EB6010F8013B65
:1059F0006B7501A9FFF738FF019B03442B6102B0CF
:105A000070BD0346DAE76B60E3E70023EDE71FB5FF
:105A100003AB009300230A461946FBF7B9FC039831
:105A200005B05DF804FB00002DE9F04F91B00023B4
:105A3000059300F00303012B06460C4617460ED0D3
:105A4000022B03D0002B3BD101073BD53946204622
:105A5000FCF71EFA90B3092011B0BDE8F08F0207E1
:105A600006D40D6A38460D21FFF7D1FF85422BD0B1
:105A70000220002306F008060DF1280A0643CDF89F
:105A800000A00C22194638460A94FBF7A7FC062E04
:105A90001CD1D4F83080D4E90A59B8F1000F0CBFFA
:105AA0004FF0010B4FF0030B16F0080600F00781D2
:105AB000BBF1010F40F0FF8000F05EF90820CBE75A
:105AC00019F026FC0120D4E70620D2E73846FCF77F
:105AD000FBF981460028B9D0524601463846FFF707
